:020000040800F2
:1000000098780020B902000893430008C93C000812
:1000100091430008E5260008C55B000800000000C9
:10002000000000000000000000000000514B00082C
:100030003138000800000000BD4500081D550008CB
:10004000D3020008D3020008D3020008D30200083C
:10005000D3020008D3020008D3020008D30200082C
:10006000D3020008D3020008D3020008D5320008EA
:10007000D3020008D3020008D3020008D30200080C
:10008000D9320008E5320008D3020008C55A00083A
:100090007D5B0008D3020008D3020008D3020008E9
:1000A000D3020008D3020008D3020008D3020008DC
:1000B000D30200081956000899560008DD3C0008D4
:1000C000CD3C0008D3020008D3020008D302000888
:1000D000D3020008E3580008D3020008E5580008DE
:1000E000D3020008D3020008D3020008D30200089C
:1000F000D3020008D3020008D3020008D30200088C
:10010000D3020008D3020008D3020008D30200087B
:10011000D3020008D3020008D302000819570008D0
:10012000D3020008D3020008D3020008D30200085B
:1001300000F002F800F0B0F80AA090E8000C824449
:100140008344AAF10107DA4501D100F0A5F8AFF226
:10015000090EBAE80F0013F0010F18BFFB1A43F0A5
:1001600001031847247D0000447D00000A444FF03D
:10017000000C10F8013B13F0070408BF10F8014B06
:100180001D1108BF10F8015B641E05D010F8016B4B
:10019000641E01F8016BF9D113F0080F1EBF10F8AF
:1001A000014BAD1C0C1B09D16D1E58BF01F801CBD2
:1001B000FAD505E014F8016B01F8016B6D1EF9D555
:1001C0009142D6D37047000000230024002500266A
:1001D000103A28BF78C1FBD8520728BF30C148BFAA
:1001E0000B6070476E2900F03D83702900F03B8161
:1001F000662907F08484652907F08184672907F060
:100200007E846129AFF3008003681B0A28BF41F098
:100210008001692900F0EA82642900F0E7827529EB
:1002200000F0E4826F2900F03186782900F0078120
:10023000E92900F0CB85E42900F0C885F52900F014
:10024000C585EF2900F02E86F82900F006810368A5
:10025000DB0928BF41F08001632900F04C85732938
:1002600000F05185E32900F01787F32900F01C877F
:10027000002070471FB500F06FFE04000020002131
:1002800006F0ECFB401C60600020002106F0D0FB73
:10029000E0601FBD10B510BD00F0BCFF1146FFF7B8
:1002A000E9FF06F0D9FA01F035FA03B4FFF7F2FFDF
:1002B00003BC01F077FA000009488047094800476D
:1002C000FEE7FEE7FEE7FEE7FEE7FEE7FEE7FEE706
:1002D000FEE7FEE704480549054A064B7047000063
:1002E0006D550008310100089872002098780020B0
:1002F00098740020987400201CB50C46064B7B4473
:1003000069460090204600F0D4FC0446002069466F
:1003100000F0E2FC20461CBDD70900000FB41CB55C
:10032000084B06AA7B4469460090059800F0C1FC82
:1003300004460020694600F0CFFC20461CBC5DF856
:1003400014FB0000B109000070B50446856900681F
:10035000C10601D5302600E02026C00707D070BDB9
:10036000D4E9012130469047206A401C20626D1E6E
:10037000F6D570BD70B5044685690078C00707D111
:1003800070BDD4E9012120209047206A401C2062E2
:100390006D1EF6D570BD70B50C460546012A05D018
:1003A0002878800600D5EA69002302E0012305E0F1
:1003B0005B1C934202D2E05C0028F9D1A869E618E0
:1003C000C01AA861286A184428622846FFF7BCFFB3
:1003D00004E0D5E9012114F8010B9047B442F8D3A9
:1003E0002846FFF7C7FF70BDF0B40D460188090528
:1003F00002D5214C7C4402E01F4C7C440E34002189
:1004000000F1240608E002F00F071209E75D42EA56
:1004100003721B097754491C52EA0307F3D102788F
:100420000023120704D5702D06D009B10223113420
:100430002246F0BC00F080B901231034F8E770B513
:1004400004460D462146106800F06DF90246294623
:100450002046BDE870400023C6E7D21D22F0070306
:10046000D3E90023C0E70368126843F02003036068
:100470000823C3610023B7E7A07900002DE9F05FEE
:10048000894604464FF0000ADFF874B1FB44C0F817
:1004900020A02046E1688847002874D0252806D08F
:1004A000D4E901219047206A401C2062F1E7002630
:1004B0005F462046E16888472028054607DB312D46
:1004C00005D2781910F8200C08B10643F1E7B007FF
:1004D00001D526F00406C4F81CA00027C4F818A013
:1004E0002A2D09D0284605F0C6FF38B304EB87084B
:1004F000303DC8F8185019E059F8041B204604EBA9
:1005000087029161E1688847012F054618D1E069AB
:10051000002820DA26F020061DE0D8F8180000EBAD
:10052000800005EB40003038C8F818002046E1682C
:100530008847054605F09FFF0028EED1012F0AD01D
:100540002E2D08D12046E16888477F1C0546022FE2
:1005500046F02006C4DBA069002803DA404246F0DA
:100560000106A061F00701D026F010066C2D0BD01B
:10057000682D09D04C2D39D06A2D35D0742D35D049
:100580007A2D33D016E038E0E1682F4620468847C0
:10059000B842054609D16C2F26D04FF48060E1683F
:1005A000064320468847054604E06C2F1AD04FF4D6
:1005B000807006430DB3A5F14100192802D82035FB
:1005C00046F400664A462946204626604E46FFF716
:1005D00009FE80B101280BD0F61D26F0070000F1BE
:1005E000080956E74020E4E78020D8E70020D6E756
:1005F00006F104094DE7284652E7206ABDE8F09F5E
:100600003079000030B505460B462A4613F8014BF9
:1006100012F8010B08B1A042F8D01CB1002802D09A
:100620006D1CF1E7284630BD10B5431C02E010F800
:10063000011B71B18107FAD14FF0013202C88C1A47
:100640008C4314EAC211F9D0C01A0A0603D0C01EA6
:1006500010BDC01A10BD0A0401D0801E10BD0902D1
:10066000FCD0401E10BD4FF000020429C0F01280E3
:1006700010F0030C00F01B80CCF1040CBCF1020F55
:1006800018BF00F8012BA8BF20F8022BA1EB0C012A
:1006900000F00DB85FEAC17C24BF00F8012B00F820
:1006A000012B48BF00F8012B70474FF0000200B546
:1006B000134694469646203922BFA0E80C50A0E885
:1006C0000C50B1F12001BFF4F7AF090728BFA0E833
:1006D0000C5048BF0CC05DF804EB890028BF40F8FF
:1006E000042B08BF704748BF20F8022B11F0804F41
:1006F00018BF00F8012B704770477047704710B55E
:1007000000F02EFC006810BD10B5044600F028FC77
:10071000046010BD09684A0501D540B27047C9059B
:10072000FCD500B2704709684A0501D5C0B27047D0
:10073000C905FCD580B270472DE9F0470D469946B2
:100740009246044600F124080168880604D5E06951
:1007500021F01001216000E00120A84201DD471BCB
:1007600000E00027A1697A1902EB0900081AA061CC
:100770002078C00602D42046FFF7E6FD002608E0F8
:10078000D4E901211AF806009047206A401C761C23
:1007900020624E45F4DB2078C0060AD52046FFF7DC
:1007A000D3FD06E0D4E9012130209047206A401CA7
:1007B0002062381EA7F10107F4DC07E0D4E901212B
:1007C00018F805009047206A401C2062281EA5F1F9
:1007D0000105F3DC2046FFF7CDFD2078000602D5A9
:1007E0000220BDE8F0870120FBE700002DE9F04181
:1007F0000646002410687529314616A510D0FFF76B
:1008000089FF002802DA404213A507E031688A0711
:1008100001D512A502E0490704D511A5012401E084
:10082000FFF781FF00210A2206F1240709E0B0FB4F
:10083000F2FCB0FBF2F302FB1C0030307854184697
:10084000491C0028F3D123462A463046BDE8F04132
:10085000FFF772BF000000002D0000002B00000019
:100860002000000011680268006A530501D5087075
:100870000AE0D30501D5088006E0130603D5C217A8
:10088000C1E9000200E008600120704770472DE9CF
:10089000FF4F0C461E464FF0FF378BB0D2E90001E8
:1008A000DDF860800A908A46C1F30A5505B93D46D5
:1008B000002108464FF00000BAF1000F00F440009C
:1008C00005DA00EB80004FF4400101EA50004FEAE6
:1008D0009059B9F1010F00DDB9460A9850EA4A0073
:1008E0000ED044F61050A5F2FF3545432F14B8F151
:1008F000000F1ED07542291E1EDDC9F100021CE04A
:10090000B8F1010F4FF0000001D0302103E0F243B5
:1009100005E02154401CB042FBDB304600220021A0
:1009200021540B99C1F80880C1E900200FB0BDE83F
:10093000F08FBD1B6D1CDEE74A4600DA694206A84F
:1009400000F0D6FB06AB93E8070003AB83E8070093
:1009500050460A9901F073F98DE80700A0F50050A0
:100960001F3800900398002D09DD42F21F014A460E
:10097000084403A90390684601F0FDFB08E0A0F5D8
:1009800000504A461F3803A90390684601F01BFC3B
:100990008DE807000004000C03D04FF0FF30410841
:1009A00000E01046B8F1000F03D000220092154677
:1009B0001EE0751E05D400F0D7FA303262556D1E68
:1009C000F9D5B3460122084302D000227F1C04E07F
:1009D0002078302801D100227F1E002A099786D076
:1009E0001DE0112D07DA00F0BFFA303262556D1CA0
:1009F00050EA0102F5D1084302D00098C8B10EE0D8
:100A00000021681E05E0235C625C63542254401E92
:100A1000491C8142F7DBAB46A81B401E0990002011
:100A200004F80B000B98099AC0F80880C0E9002B65
:100A30007CE711264FF0000859E72DE9F04F884672
:100A40000446D21D22F0070191B0D1E90001CDE9A1
:100A50000A0105F095FC02460B98C00F01D02D202D
:100A600007E02068810701D52B2002E0202101EA60
:100A7000C000032A099001D0072A05DB034641463E
:100A8000204600F0BFFA0BE12078800601D5E0692E
:100A900000E00620B8F1650F814606D0B8F1660F78
:100AA00018D0B8F1670F70D131E00020B9F1110F03
:100AB000009001DB112301E009F101030AAA01A959
:100AC0000CA8FFF7E4FEDDE90C70002609F1010532
:100AD000834647E001204B4600904FF000470AAAAA
:100AE00001A90CA8FFF7D3FEDDE90DB00C995D4616
:100AF000002610B909F101000D18B9EB050003D467
:100B0000C0F1FF3609F10105A5EB09002BE0B9F1B1
:100B1000010F01DA4FF001090020B9F1110F009027
:100B2000484601DD112300E003460AAA01A90CA8EA
:100B3000FFF7ADFEDDE90C704D46002683462078B8
:100B400000070AD4AB4500DA5D4601A8012D04DD9B
:100B5000411911F8011C302907D04F4502DA17F16D
:100B6000040F04DA012082460FE06D1EEEE7002F2D
:100B700002DCED1B3E4403E0781CA84200DD7D1C36
:100B8000B81B00F1010A4FF000472078000703D49A
:100B9000AA4501DB4FF0FF3A0021B7F1004F0DF1FC
:100BA00043088DF8431024D002202B23002F01DAB4
:100BB0007F422D230A21021EA0F1010000DC5FB15B
:100BC00097FBF1FC97FBF1F201FB1C7C17460CF143
:100BD000300C08F801CDEEE7A8F101000370218880
:100BE000090501D5452100E06521A0F1010800F8C3
:100BF000011C09980FA9A1EB0807FF1D00B10120F6
:100C0000411901EBEA70A1693844081A401EA0613D
:100C10002078C00602D42046FFF796FB099828B139
:100C2000D4E901219047206A401C20622078C00648
:100C300022D52046FFF788FB1EE0002E04DBB345DB
:100C400002DD01A8805D00E03020D4E90121904759
:100C5000206A401C2062761CAAF101005FEA000AAB
:100C60000AD100F079F9C0680168405CD4E901213B
:100C70009047206A401C2062281EA5F10105DCDC9B
:100C800007E0D4E9012118F8010B9047206A401CC5
:100C90002062381EA7F10107F3DC2046FFF76AFB4C
:100CA000032011B043E6000001694A1C0261087884
:100CB000704700B58FB0CDE901310021059105499C
:100CC0007944CDE9031011466846FFF7D7FB0FB012
:100CD00000BD0000E5FFFFFF0A6802F8010B0A6093
:100CE000704710B5436913B1AFF3008001E0FFF71F
:100CF00052FB012010BD127800F124010A7000227D
:100D00004A700122EDE711684FF0FF32E9E7000079
:100D10002DE9FF5F15468A460446DFF8AC80F844AB
:100D20000027D8E900103E46CDE9001010E03AF85F
:100D300016106A4602A800F049FA411C07D0217833
:100D4000890603D5E269391891420DD80744761C0B
:100D50002078800602D5E069B84205DDAE42E6DBC8
:100D60003AF816000028E2D1A069C01BA061204615
:100D7000FFF7EAFAD8E90010CDE90010002017E0EB
:100D80003AF818106A4602A800F020FAB0F1FF3FC6
:100D900081460BD000250DF1080B05E0D4E90121B7
:100DA0001BF8050090476D1C4D45F7D308F1010075
:100DB000B0428046E4DB206A384420622046FFF7D8
:100DC000D9FABDE8FF9F0000B27000002DE9F041A4
:100DD0008046D21D22F007020025D2E90002F52943
:100DE00015A614D0011E72F1000106DA0023D0EB23
:100DF000030063EB020211A608E0D8F800108B078D
:100E000001D50FA602E0490701D50EA6012511461E
:100E1000002408F1240704E000F0A6F830323A5527
:100E2000641C50EA0102F7D12B4632462146404667
:100E3000BDE8F041FFF780BC000000002D0000007D
:100E40002B0000002000000030B4002100F1240439
:100E500008E002F00705D208303542EA4372DB08A9
:100E60006554491C52EA0305F3D10468002310A21B
:100E7000250708D504F020040C4304D0C4690123DD
:100E80000CA2641EC46130BCFFF756BC10B504460A
:100E900021461068FFF747FC02462046BDE8104097
:100EA0000023D1E7D21D22F00701D1E90023CBE7CF
:100EB00000000000300000000FB4002300B589B02E
:100EC0000CA900910B99CB60204B7B440693204BDF
:100ED0007B44079304236FF00042CDE901321D4AA1
:100EE0007A446B4608920246002006F06AFE09B07A
:100EF0005DF814FB70B506464FF0FF3015460C4602
:100F0000324686B00091CDE9010169460020049087
:100F100004A8FFF7D1FF03460498211825B108B1B2
:100F20000A4600E022462A6000280DD0002B02DD90
:100F30000098884208D03246081B69460094CDE9E3
:100F4000010404A8FFF7B8FF06B070BDE30100007C
:100F5000FB0100000F0100000048704754720020A0
:100F6000004870473472002030B5B0F10A024FEAF1
:100F7000900E71F100034EEA817EB0EB0E0061EB42
:100F800091014FEA101E4EEA017E10EB0E0041EB7C
:100F900011114FEA102E4EEA016E10EB0E0041EBDC
:100FA00011214FEA104E4EEA014E10EB0E0041EBBC
:100FB0001141401841F100014FEAD00040EA417070
:100FC0004FEAD10110EB80054FEA810444EA9074A6
:100FD00044EB01046D1944EB0404521BA3414FF090
:100FE000000348BF0A3200D530BD401C41F100016A
:100FF00030BD10B5044600F033F90068005D00F024
:10100000010010BD2DE9F0411F460446032601688A
:10101000072A01F4006004DB08B116A505E016A557
:1010200003E008B115A500E015A521F0100020602F
:10103000A069C01EA0610FB1401EA0612046FFF74D
:1010400083F94FB1D4E9012138469047206A401C0A
:101050002062C01C206206E0206AFAE7D4E9012180
:1010600015F8010B9047761EF8D22046FFF782F95B
:10107000BDE8F0814E414E006E616E00494E460063
:10108000696E660010B5436913B1AFF3008001E0EB
:10109000FFF73EFE012010BD128800F1240182847A
:1010A0000022C2840122EDE711684FF0FF32E9E728
:1010B000426842B1016811F8013B23B1521EC0E9F8
:1010C0000012184670470121C160881E70474268AF
:1010D0005AB1C368016843B983688B4205D0491E81
:1010E000521CC0E90012002070474FF0FF307047DB
:1010F0002DE9F047814616468AB0334878440DC83A
:101100008DE80D0030487844801C03AC0DC884E89D
:101110000D0041F69B300844372190FBF1F290FB23
:10112000F1F5A5F1800501FB12041B3C02D56442D8
:10113000012000E00020DFF890A080460027FA445C
:10114000AAF1BE0A0DE0E00709D03246684607EB77
:1011500047010AEB810101F036F88DE807006410C1
:101160007F1C002CEFD1184F7F44AC3F18E0E807FC
:1011700014D007EB04100DF1180A90E80E008AE86D
:101180000E00C068F04201D198190890324606A9B5
:1011900003A801F018F803AB83E807006D10641C86
:1011A000002DE4D132466946B8F1000F03A802D001
:1011B00000F0E1FF01E001F006F8C9E90001C9F81B
:1011C00008200AB0BDE8F087586D000070B51646DB
:1011D0000C46054600F044F8036893F80101012825
:1011E00006D0FF2C0FD8185D68B101202C7070BD9F
:1011F000D3F807013246214603F207130344284679
:10120000BDE8704018474FF0FF3070BD0048704790
:10121000347200207546FFF7F9FFAE4605006946B7
:10122000534620F00700854618B020B5FFF752F866
:10123000BDE820404FF000064FF000074FF00008D7
:101240004FF0000B21F00701AC46ACE8C009ACE858
:10125000C009ACE8C009ACE8C0098D467047000081
:1012600010B5FFF779FE001D10BD00BFF15700005B
:101270002DE9FF4F064689B00878FF2806D0491CA3
:101280002D2805D000244FF0000908E000200CE0D4
:101290000124F8E709EB8903491C00EB43090878AE
:1012A000FF28F7D114B1C9F100008146107800255C
:1012B0002C46AA4629462D2801D02B2804D1521CA1
:1012C0002D2813D0002082468B461078FF280FD09F
:1012D0004FF0000C0A21521CA5FB017804FB018190
:1012E00005FB0C11C5194BEB0104EEE70120EAE701
:1012F000002108464FF00000BAF1000F02D000EBC9
:1013000080004008C0F38158B8F1010F01DD4FF0B3
:10131000FF380C9809EB000755EA040009D04FF09C
:10132000020917F5FA7F0BDA4FEACA70C6E900B076
:1013300012E04FEACA70C6E900B00DB0BDE8F08F08
:10134000B7F5FA7F0DDDF0487844D0E90010C6E922
:10135000001040EACA707060FFF702FEC0F800900B
:10136000EBE7391E02DAC8F1000200E0424600DA7B
:10137000794206A8FFF7BCFE06AB93E8070003AB73
:1013800083E8070044F23E005BEA040100905846FF
:1013900004D144F21E012C465D460091210C090443
:1013A000014306D10099240444EA15442D04103960
:1013B000009104F07F41014306D10099240244EAE0
:1013C00015642D020839009104F07041014306D1E3
:1013D0000099240144EA15742D01091F009104F0BD
:1013E0004041014306D10099A40044EA9574AD0040
:1013F000891E009104F00041084304D100986D1942
:101400006441401E009042466846002FCDE90145E8
:1014100003A902DD00F0EBFE01E000F0C0FEBAF12E
:10142000000F04460D4601D084F0004440F2FF77DF
:1014300024F00040284303D0C4F30A50B84212D12C
:10144000FFF78EFDC0F80090C4F30A50B8420AD1ED
:10145000AE487844D0E90010C6E9001004F000411D
:101460000843706069E7C6E9005466E72DE9FF4F5D
:101470001F464FF0000A4FF0FF38454691B0D7E9BC
:101480000146CDF83CA0FFF767FDC0680168405CED
:101490001090B96912986D1C8847396A814688474F
:1014A0000028F6D1B9F1FF3F0AD0002E24F4D06411
:1014B00011DDB9F12B0F08D0B9F12D0F0BD102E0DE
:1014C000404615B03AE744F48064B96912986D1C3F
:1014D0008847761E8146600504A901D52D2000E0CD
:1014E0002B20002E01F1010B0DF130088DF81000BA
:1014F0003FDDB9F1690F08D0B9F1490F05D0B9F155
:101500006E0F02D0B9F14E0F1CD13B4601A80095D9
:1015100080E85002DDE912126FF0020006F055FB80
:10152000C11CCED10EE0B96912986D1C8847814666
:101530001398761E44F4007405600F98401C002E2A
:101540000F9016DDB9F1300FEDD0B9F1780F02D060
:10155000B9F1580F0DD10F9801280AD13B46CDE9BA
:101560000054DDE91212001F029606F02CFBC11C8C
:10157000A7D1109989453ED144F0800406E0139923
:10158000681CAAF1010A44F400740860B9696D1C72
:101590001298761E884730288146F0D02BE01099AB
:1015A000894505D1200603D4761E44F0800418E056
:1015B000484604F060FF08B3761E0DF123018B4509
:1015C00044F4007408D2A9F130000BF8010B200696
:1015D00007D5AAF1010003E0200602D40AF10100B8
:1015E0008246A00502D51399681C0860B969129853
:1015F0006D1C88478146002ED1DC53E0002E51DD62
:10160000B9F1650F02D0B9F1450F4BD1A00549D50D
:10161000B9696D1C1298761E24F440748847002E18
:1016200081460CDD2B2804D0B9F12D0F07D144F4ED
:101630008074B96912986D1C8847761E8146E00552
:1016400001D52D2100E02B2108F8011BCDF80080E9
:1016500021E0761E0DF13901884544F400740CD266
:10166000A9F1300010F0FF0088F8000002D10099C5
:10167000884509D908F1010806E0E00501D52448AC
:1016800001E042F20F708246B96912986D1C8847DA
:10169000814613980560002E04DD484604F0EBFEF9
:1016A0000028D6D1F96912988847FF2053468BF855
:1016B000000088F8000000200A900B9004AA0CA9F2
:1016C0000AA8FFF7D5FDA00502D46FF00100F8E6E7
:1016D00014F0240F0AD0E00714D13868DDE90A12AB
:1016E000031D3B600068C0E900120BE00AA96846D0
:1016F00004F06AFEE00705D13868009A011D3960E0
:10170000006802602846DCE65C6B0000526A00005C
:10171000F1D8FFFF0446AFF300802046FEF7C5FD79
:101720004FF0013C50F8042B51F8043B9A4221D170
:10173000A2EB0C03934313EACC1317D150F8042BFC
:1017400051F8043B9A4215D1A2EB0C03934313EAE0
:10175000CC130BD150F8042B51F8043B9A4209D119
:10176000A2EB0C03934313EACC13DBD04FF0000041
:10177000704700BFD01A01BAB1FA81F101F0180127
:1017800022FA01F0CB40C1F12001DBB2C0B2C01A95
:101790002CFA01F3D11A914311EAC311E6D1704733
:1017A0007047000001491820ABBEFEE7260002008A
:1017B0002DE9FF4F1F464FF03C0987B04FF0004224
:1017C000DDE9141001F10108DDF858A002EA4050EB
:1017D0000390002004908346054604460590B969AD
:1017E000461E08988847AAF1010A0290BAF1000F34
:1017F00037DD02982E2815D0102100F012FA0028AB
:101800002ADB4FF0010B0499014316D0B9F1000F08
:101810000BDB4A46C11700F0F1F905430C43A9F16F
:10182000040905E00120059007E008B145F0010535
:1018300001200490059800B9361DB969089808F18F
:1018400001088847BBF1000FAAF1010A0290CDD030
:101850000999C1F80080C9E70298702808D050287B
:1018600006D0F96908988847BBF1000F14D04FE003
:10187000002002900120BBF1000F049009D0B9694B
:10188000089808F101088847AAF10109B9F1000F89
:1018900007DCF969089888476FF001000BB0BDE8D4
:1018A000F08F2B2804D02D280CD14FF0FF3004905E
:1018B000B969089808F101088847A9F10109B9F147
:1018C000000FE6DD411CE4D00A2100F0AAF900284F
:1018D000DFDB029908F1010801EB810100EB410017
:1018E0000290B969089888470A2100F09AF9099A84
:1018F000A9F10109B9F1000FC2F8008001DD00284B
:10190000E7DAF969089888470499029800FB0166AC
:1019100055EA040004D004F04041090002D006E07A
:10192000039898E0A40044EA9574AD00B61E04F054
:101930000041080002D16D196441761E159810F01F
:10194000240F03D04FF00B095C4803E04FF0280947
:101950006FF07D008246564507DAAAEB06018944FE
:10196000B9F1410F01DD4FF0410901200021A9F13A
:10197000010200F043F9024628400B46214008438B
:1019800001D0012100E00021501E029143F1FF31FE
:1019900028402140084301D0012000E000200299A6
:1019A000834651EA0B014FD0002108464FF000005A
:1019B000039900F4400039B100EB80004FF440017E
:1019C00000EBD07001EA60008015012802DD4FF0C5
:1019D000FF3000E013D0401C36D0029860B3BBF15A
:1019E000000F0CD14A460120002100F007F92840E1
:1019F0002140084301D0012000E00020E0B1012097
:101A00004A46002100F0FAF8034640190A466141AF
:101A10002D1A8C4111D3B9F1400F09DD159810F042
:101A2000240F02D0AAF1340603E0AAF1170600E061
:101A3000761C00254FF0004406E05B1E42F1FF32A9
:101A400020EA030521EA0204CAF10100B04206DAE5
:101A50001B49039808430190002000900EE0039A70
:101A6000C4F3D321E80A0A43164940EA44500A4322
:101A70003146CDE90002684604F0F2FC159810F0FA
:101A8000240F0BD01598C00715D13868DDE9001276
:101A9000031D3B600068C0E900120CE002A8694623
:101AA00004F092FC1598C00705D13868029A011D10
:101AB0003960006802604046F0E6000002FCFFFF6B
:101AC0000000F07F0000F03F2DE9FF4F92461D46D9
:101AD00085B04FF00041DDE9124BDDE914727F1E45
:101AE00001EA4B50414940F0FF4940EA010800211A
:101AF00022F020004928049102D04E2828D04CE042
:101B00003BA0012607C88DE80700A9690698641C58
:101B100088477F1E014606D41DF8060018B121F043
:101B2000200181420BD0E96906988847032E34D002
:101B3000082E32D06FF0010009B0BDE8F08F761C9E
:101B4000032E01D0082EE0D1601CCAF80000DCE7AB
:101B5000A9690698641C88477F1E2AD420F02000BB
:101B6000412826D1A9690698641C88477F1E20D485
:101B700020F020004E281CD1A9690698641C8847D3
:101B80007F1E48F4002849F48009CAF8004001D4B7
:101B9000282806D0E969069888475FEACB7012D0FA
:101BA00022E0A9690698641C88477F1E01D400289A
:101BB00003DAE96906988847BCE72928F1D1641C53
:101BC000CAF80040E9E71BF0240F07D02868049901
:101BD000031D2B600068C0E9001805E02868021D9D
:101BE0002A600068C0F800902046A5E70000F07F5A
:101BF000494E46494E49545900000000B2F12003B5
:101C00000AD5C2F1200301FA02F120FA03F300FA27
:101C100002F041EA0301704700FA03F14FF00000BF
:101C200070473A2800D2303820F02002412A01D3F0
:101C3000A2F13700884201D34FF0FF3070475FEACE
:101C4000400C08BF91F0000F4FEA8C234FEAC122ED
:101C500043EA51514FEA1C5018BF00F5F0404FEADB
:101C6000300018BF41F000415FEA6C5C00F0298051
:101C7000BCF1FF3F08BF40F080407047130C06BF27
:101C800012044FF0100C4FF0000C130E04BF1202A0
:101C90000CF1080C130F04BF12010CF1040C930F8C
:101CA00004BF92000CF1020CD30F04BF52000CF1E0
:101CB000010C11464FF00002A0F11F00A0EB0C0038
:101CC000704711F0004F08BF704731F000413FF4FA
:101CD000D5AF0B0C06BF09044FF0100C4FF0000CF1
:101CE0000B0E04BF09020CF1080C0B0F04BF090115
:101CF0000CF1040C8B0F04BF89000CF1020CCB0F0C
:101D000004BF49000CF1010CCCF12003A0EB0C0046
:101D100022FA03F302FA0CF241EA030100F1010096
:101D2000704720F07F4C80EA030023F07F47ACEB44
:101D3000070303F57C5300F0004003F1FF032DE996
:101D400080494FEA154B09B44FEA144325EA0B4E7C
:101D500024EA03480FF2042606EB132749083E78CD
:101D60005FEA320203FB0667C7F5000707FB06F6CA
:101D70004FEA54374FEAD64606F1020607FB066CD7
:101D8000CCF1005C4FEA1C472CEA074C07FB06F439
:101D90000CFB06F504EB15464FEA961634BF0020FF
:101DA0004FF000404FEAD13706FB07FC4FEA1C4CCE
:101DB0000CFB0BF7D21B03FB0CF761EB07010CFBD1
:101DC0000EF7B0EB074072EB17420CFB08F734BF7D
:101DD000A2EB0742B2EB074261EB17414FEA0C441A
:101DE0004FEA910706FB07FC4FEA1C4C0CFB0BF774
:101DF000B0EBC74072EB573203FB0CF734BFA2EBDA
:101E0000C742B2EBC74261EB57310CFB0EF7B0EBA8
:101E1000C70072EB57720CFB08F734BFA2EBC70286
:101E2000B2EBC70261EB5771039F4FEA816141EA50
:101E3000921104EBCC044FEAD1374FEA826206FBE1
:101E400007FC42EA90124FEA80604FEA1C4C0CFB00
:101E50000BF7D21B03FB0CF761EB07010CFB0EF732
:101E6000B0EB074072EB17420CFB08F734BFA2EB54
:101E70000742B2EB074261EB17414FEA8C554FEA3C
:101E8000910704EB9C2406FB07FC4FEA1C4C0CFB5F
:101E90000BF7B0EBC74072EB573203FB0CF734BFC4
:101EA000A2EBC742B2EBC74261EB57310CFB0EF716
:101EB000B0EBC70072EB57720CFB08F734BFA2EB14
:101EC000C702B2EBC70261EB577115EB4C254FEA25
:101ED000816141EA92114FEA82624FEAD13742EAC8
:101EE000901206FB07FC44F100044FEA80604FEAC1
:101EF0001C4C0CFB0BF7D21B03FB0CF761EB07012F
:101F00000CFB0EF7B0EB074072EB17420CFB08F727
:101F100034BFA2EB0742B2EB074261EB174115EB6E
:101F20001C154FEA813141EA92414FEA823242EA7E
:101F300090424FEA80304FEA0C7644F1000448EAC0
:101F400003434EEA0B484FF0000EB2EB080C71EB66
:101F5000030724BF624639464EEB0E0E4FF0000BCE
:101F60000018524149414BEB0B0BB2EB080C71EBE3
:101F700003077BF1000B24BF624639464EEB0E0E81
:101F80004FF0000B0018524149414BEB0B0BB2EBE9
:101F9000080C71EB03077BF1000B24BF6246394646
:101FA0004EEB0E0E51EA020718BF46F0010616EB83
:101FB0000E7655F1000254F1000103D5BDE8890108
:101FC000BDE80088BDE88901BDE80048B619524166
:101FD00041EB0101A3F10103704780807F7E7D7C8E
:101FE0007B7A7978777676757473727171706F6EAB
:101FF0006E6D6C6C6B6A6A69686867666665646456
:10200000636362616160605F5F5E5E5D5D5C5C5BDF
:102010005B5A5A595958585757565655555554544E
:10202000535352525251515050504F4F4F4E4E4DAC
:102030004D4D4C4C4C4B4B4B4A4A4A4949494848F8
:102040004847474747464646454545444444444338
:1020500043434342424242414141000046EA064670
:10206000A3F570534FEA164646EA42564FEAD2228B
:1020700042EA415210B54FEAD121A3F1010300F029
:1020800017F820F0004000F1010C00F0004701EBD0
:1020900000501146BCF5006F40EA070000D210BDA9
:1020A00002484FF0000140EA070010BD0000F07F39
:1020B000002B26D4770021D01CB54FEA370703B494
:1020C0004FF010004FF010014FF000000FBCBDE8C2
:1020D00010400BF1010BBBF1010F08BF5FEA1707BE
:1020E00022BF12F1010211F101014FF0004143F151
:1020F000000300F0004043EA00007047F9D357089E
:10210000DAE746EA064613F1400F4FEA16461FDDAE
:1021100013F1200FDFBF16430A46002120335B4234
:10212000C8D0C3F1200746EA064602FA07F74FEA8D
:10213000164646EA0706C3F1200722FA03F201FA1F
:1021400007F721FA03F14FF0000342EA0702B1E773
:1021500046EA020646EA06464FEA164646EA0106FF
:10216000BCBF46EA0646360C4FF000034FF00002B3
:102170004FF000019EE72DE9C048934630B491E846
:10218000380007C831EA400C48BF34EA430C03D595
:10219000FFF7C7FDFFF78CFFF0BCBDE800882DE915
:1021A000C048934630B491E8380007C831EA400C83
:1021B00048BF34EA430C03D5FFF7B3FDFFF74EFFEA
:1021C000F0BCBDE800882DE9C048934630B491E8E2
:1021D000380007C810F0804F08BF13F0804F03D1BC
:1021E00000F019F8FFF764FFF0BCBDE800882DE9A6
:1021F000C048934630B491E8380007C810F0804FCB
:1022000008BF13F0804F03D100F005F8FFF726FF59
:10221000F0BCBDE8008820F07F4780EA030023F08F
:102220007F4C07EB0C03A3F57C5300F00040A3F1B7
:10223000FE0392F0000F00F0B38095F0000F00F065
:1022400077802DE901494FEA11404FEA144621EA0F
:10225000004800FB06FC24EA064708FB06F607FBDD
:1022600008F800FB07F718EB06484CEB164C4FEA52
:10227000124B18EB07484FEA15464CEB174022EA81
:102280000B4E0BFB06FC25EA06470EFB06F607FB8A
:102290000EFE0BFB07F71EEB064E4CEB164C4FF0F9
:1022A00000061EEB074E4CEB174B18EB0B0840F1EA
:1022B000000018EB0E0B58EB000840F100008F1ADD
:1022C0004FF000013CBFC943661B14BFB5EB040CC3
:1022D00000213CBFC943F61B4FEA17444EEA8E0E5D
:1022E00027EA04454FEA1C4704FB07622CEA074C27
:1022F00005FB07F70CFB05F604FB0CFC16EB074689
:1023000042EB174216EB0C4642EB1C421BEB060657
:1023100058EB0202414146EA9E0601D5BDE801891B
:10232000B619524141EB0101A3F10103BDE8018956
:102330004FEA14454FEA114724EA054621EA074CC3
:1023400005FB07F406FB07F70CFB06F105FB0CFC8D
:1023500011EB074144EB17444FEA124711EB0C41D4
:1023600044EB1C4422EA074C05FB07F206FB07F787
:102370000CFB06F605FB0CFC16EB074642EB17427E
:1023800016EB0C4642EB1C456A1854F1000148BF9D
:102390007047B619524141EB0101A3F101037047A7
:1023A00095F0000F37D04FEA11424FEA144721EA67
:1023B000024624EA074C02FB07F106FB07F70CFB79
:1023C00006F402FB0CFC14EB074441EB17414FEA07
:1023D000154714EB0C4441EB1C4125EA074C02FB6A
:1023E00007F506FB07F70CFB06F602FB0CFC16EBE9
:1023F000074645EB174516EB0C4645EB1C421219F8
:1024000051F1000148BF7047B619524141EB01013B
:10241000A3F1010370474FEA14454FEA114724EA3C
:10242000054621EA074C05FB07F106FB07F70CFB05
:1024300006F24FF0000605FB0CFC12EB074241EBE5
:10244000174112EB0C4251EB1C4148BF70479218E8
:1024500041EB0101A3F101037047002904D0816819
:1024600041F0010181607047816821F001018160C4
:102470007047000030B591B00121084602F046F9DE
:102480004FF4004002F038F9012140F2152002F02B
:1024900059F9484D284600F045FF47480090474805
:1024A00001900024029441F2707103910494802100
:1024B00005914900069188000790202008900002AD
:1024C00009900A946946284600F0C4FF01220221BF
:1024D000284600F0B5FF0121284600F015FF03252E
:1024E000ADF82C508DF82E508DF82F400BA93448A4
:1024F00001F0DAFA1D20ADF82C008DF82E508DF881
:102500002F400BA92F4801F0CFFA0C9401208DF831
:1025100034008DF8354068040E900F9406208DF835
:102520004000254C0CA94C3C204600F073F80623D3
:1025300005220D21204600F091F8012303220A21F3
:10254000204600F08BF8012304220C21204600F0E5
:1025500085F8012306220E21204600F07FF8012392
:102560001A460021204600F079F80123022219467C
:10257000204600F073F80121204600F025F80121E3
:102580002046FFF76AFF204600F0A2F8204600F040
:102590003AF80028FAD1204600F09FF8204600F0D3
:1025A0002BF80028FAD10121204600F019F811B0CB
:1025B00030BD0000080002404C240140BC2A00202D
:1025C0000008014000100140002904D0816841F456
:1025D000807181607047816821F4807181607047EB
:1025E000002904D0816841F48011816070478168BE
:1025F00021F48011816070470146002089684907F5
:1026000000D501207047014600208968090700D5E0
:102610000120704710B542680E4B1A400C790B68C8
:1026200042EA04221343436082680B4B1A40D1E90B
:10263000024323434C7942EA440213438360C26A53
:1026400022F47002097C491EC9B242EA0151C162FA
:1026500010BD0000FFFEF0FFFDF7F1FF70B507268B
:1026600009290AD9C568A1F10A0404EB4404A6406B
:10267000B543A3401D43C56007E0056901EB410474
:10268000A640B543A3401D4305611F23072A09D275
:10269000446B521E02EB820293409C4391400C43D8
:1026A000446370BD0D2A09D2046BD21F02EB820273
:1026B00093409C4391400C43046370BDC46A0D3A3F
:1026C00002EB820293409C4391400C43C46270BD74
:1026D000816841F0080181607047816841F0040120
:1026E00081607047FEE7C1B2000A40EA01207047EE
:1026F0002DE9F0034FF0FF38C0F8188001783C4D09
:1027000055F8212013683B4E3C4FDFF8F4C056F8D3
:1027100021402342384C48D0826800215160818A90
:10272000090454D48178D9BB0178DFF8D89059F8DE
:1027300021100A8842F400720A80017859F82110A9
:102740008A8822F400628A8006218161037859F820
:1027500023100A8B920705D58269012A02D082696B
:10276000521CF6D1816901291BD08169491C18D0FE
:10277000C0F8188054F823100A6822F001020A6099
:10278000017859F821108A8822F400728A80017831
:1027900059F821108A8822F480528A80012101731D
:1027A00015E0BDE8F00300F0E5B9136857F82180A3
:1027B00013EA080F0BD112685CF821301A4206D0D8
:1027C0001022027354F82110496882685160007821
:1027D00056F8201057F8202011435CF8202055F8B7
:1027E000200011434160BDE8F00300207047000065
:1027F000C0000020BC7C000898000020C47C0008B9
:10280000CC7C0008780000202DE9F0034FF0FF3366
:1028100083610178474C54F82120D2F80080464D5E
:10282000DFF818C1474F55F8216018EA060F444EEB
:102830005ED0426800215160818A49046AD481785F
:10284000002967D10178DFF8008158F821108A88C3
:1028500022F400628A800521816190F8009058F886
:1028600029108A8A520705D48269012A02D0826916
:10287000521CF6D18169012932D08169491C2FD0BF
:102880008361416909021AD458F829100A8842F470
:1028900000720A8006218161017858F821100A8BA4
:1028A000920705D58269012A02D08269521CF6D1AD
:1028B0008169012918D08169491C15D0836101788B
:1028C0005CF821100A6822F001020A60017858F8C9
:1028D00021108A8822F400728A800121017319E094
:1028E000BDE8F00300F046B9BDE8F00300F042B9DE
:1028F000136856F8218013EA080F0BD1126857F8B5
:1029000021301A4206D0102202735CF82110496867
:1029100042685160007855F8201056F82020114385
:1029200057F8202054F8200011434160BDE8F0031F
:1029300000207047C0000020A47C00089000002008
:10294000AC7C0008B47C00087800002030B5214B36
:10295000027885784FF2FF0453F82210012D08D138
:1029600045686D682DB9057B012D31D0057B062D9D
:102970002ED0898A01F4706101611021017353F82E
:1029800022108C820169C9050DD5017853F82110F8
:102990000A8842F400420A80017853F821100A881C
:1029A00022F400420A80016989050DD5017853F8A7
:1029B00021100A8842F400420A80017853F821105D
:1029C0000A8822F400420A8001690069002030BDB3
:1029D0008C82FBE77800002082B000210191017811
:1029E000124A52F82110898A01F0DF0101918178A1
:1029F000002914D1BDF80410C90702D002B001F0BB
:102A000085BABDF80410890702D502B001F06CB98F
:102A1000BDF80410490602D5017B0A2902D0002026
:102A200002B0704702B001F0E3B900007800002066
:102A300070B504462C4DE078012805D002280CD052
:102A400010202073012070BD207855F82000818867
:102A500041F480618180002070BD207855F820000D
:102A6000828822F400728280207855F820008288C3
:102A700042F400628280207B062807D0012905D01D
:102A8000207B0A2817D0022915D02AE02078626915
:102A9000616800F04FF8207855F82000818821F413
:102AA000805181802178114850F82100016841F05F
:102AB0000101016015E020786269A16800F01AF850
:102AC000A07830B9207855F82000818841F48051F1
:102AD00081802178064850F82100016841F0010109
:102AE0000160002070BD00007800002090000020F0
:102AF0009800002030B40C4B0C685C604968D960C9
:102B00000A4951F82010196012044FF0000102D553
:102B100020221A6200E019629960054951F82000EC
:102B200030BC014900F096BCAC710020847C0008E8
:102B30009800002030B40C4B0C685C604968D96088
:102B40000A4951F820101960510402D52021196258
:102B500001E00021196210219960054951F8200017
:102B600030BC014900F076BCAC710020847C0008C8
:102B7000900000204FF0FF31816110210173FF218F
:102B80000161AFF3008001F063FC00002DE9F0412A
:102B9000194E1A4F1A4C1B4D28E047F6FF70206063
:102BA000288800F00F01317007EB8100D0F8002C6D
:102BB00092B213040CD5D0F8002C40F68F731A4053
:102BC000C0F8002C1048491E50F8210080470DE045
:102BD00012060BD5D0F8002C48F60F731A40C0F837
:102BE000002C0A48491E50F82100804720682880A0
:102BF0000004D2D4BDE8F081CC0000200050004099
:102C0000445C00400201002020010020040100205B
:102C10002DE9F84F002000904BF6BF7748F280086E
:102C2000614E624D40F68F7ADFF8849148F60F7B53
:102C3000604C2CE0088800F00F0089F8000078B3A1
:102C400004EB8001D1F8002C0092BDF800201204A2
:102C50000AD5D1F8002C02EA0A02C1F8002C564924
:102C6000401E51F820008047BDF8000000060ED538
:102C700099F8000004EB8001D1F8002C02EA0B0265
:102C8000C1F8002C4D49401E51F8200080474648AD
:102C9000443000684A4908800004CBD4BDE8F88F6E
:102CA000FFE730682880288800F030006880288896
:102CB00000F4405028803068384080F4005080F0A4
:102CC000200040EA080030600888C00620D4306840
:102CD00000EA0B00306001F063F930683840298861
:102CE000C90401D580F480502988890401D580F475
:102CF00000506988C90601D580F0100069888906EE
:102D000001D580F0200080B240EA08003060C5E7BD
:102D100030680090BDF80000000520D5306800EA5A
:102D20000A00306002F004F9306838402988C9048C
:102D300001D580F480502988890401D580F40050A1
:102D40006988C90601D580F010006988890601D517
:102D500080F0200080B240EA080030609EE7BDF8B5
:102D60000000000493D5306800EA0A00306001F0EA
:102D7000EDFB306838402988C90401D580F48050C3
:102D80002988890401D580F400506988C90601D5D5
:102D900080F010006988890601D580F0200080B29B
:102DA00040EA0800306079E7005C0040C80000207D
:102DB000CC00002000500040200100200401002031
:102DC0000201002010B5A0F2E24004F03CF9BDE899
:102DD0001040024A024B03F045BF0000D7A3703DEC
:102DE0000A1724402DE9F047002604F02CF90022B0
:102DF000334B04F08FF904460D460022314B204638
:102E0000294604F04BF903D800202F49BDE8F0878C
:102E100000222E4B2046294604F07AFA02D80020E0
:102E20002B49F3E72B4F00E0761C57F8260004F0FF
:102E300021F922462B4604F031F9F5D3701C57F8DE
:102E4000200004F017F922462B4604F061FAEBD972
:102E500057F8260004F00EF922462B4604F05AF8E3
:102E600006D106EB8600BDE8F0470A3804F0EBB85F
:102E7000701C57F8268057F82070A8EB070004F064
:102E8000DFFC154904F0FEFB8146C6F10200474312
:102E9000761E08FB067004F0D3FC8046484604F01A
:102EA00063FB06460F46404604F05EFB22462B4677
:102EB00004F070FA32463B46BDE8F04703F0D2BE5C
:102EC000000024400050854000005940403DEB4048
:102ED000000024C0007C00080000A04010B504F0F1
:102EE000B2F8BDE81040024A024B04F013B90000EA
:102EF000FCA9F1D24D62503F10B504F0A4F8BDE832
:102F00001040024A024B04F005B90000FCA9F1D2BE
:102F10004D62603F10B504F096F8BDE81040024ADB
:102F2000024B04F0F7B80000FA7E6ABC7493683F65
:102F30002DE9F04F9DB00020704D714A03264FF4EB
:102F4000A677002100EB400303EB010C52F8204070
:102F500035F81CC0644442F82040491C0329F3DBC7
:102F600052F8201091FBF6F142F82010401CB842B4
:102F7000E7DD644A40F24D11614800F037F98021E5
:102F8000614800F0E4FD04F075F8CDE91601402138
:102F90005E4800F0DCFD04F06DF8CDE91401574EF9
:102FA0000C3E3088FFF7B6FF804689467088FFF7F1
:102FB000A3FFCDE91A01B088FFF704FF04460D46D0
:102FC000F088FFF70FFFCDE918017089FFF786FF42
:102FD00006460F4600224E4B2046294604F098F93B
:102FE00005D2002002F0FCF9002002F043FADDE9EE
:102FF00018010022474B04F08BF902D24FF0010A6E
:1030000001E04FF0000ADDE918010022424B04F014
:1030100045F801D2012000E00020DFF800B15AEAB3
:10302000000A05D0002002F025FA002002F0D8F9AD
:103030003B4A3C4B3046394604F06AF905D2002041
:1030400002F018FA002002F0CBF9DFF8DCA05A46B3
:1030500053464046494604F021F802D24FF000089A
:10306000C146DDE91A015A46534604F017F802D268
:1030700000211A911B915A4653462046294604F0D6
:103080000DF801D2002425465A46534630463946AB
:1030900004F004F801D200263746CDE91267DDE9D5
:1030A0001801CDE91001DDE91A01CDE90C01CDE9E6
:1030B0000E4500211D48CDE90A890891099103C8F0
:1030C000CDE906011A4803C8CDE90401194803C82F
:1030D000CDE90201DDE91401CDE90001DDE91623A6
:1030E00015A12348FDF71AF91DB0214ABDE8F04F9C
:1030F000044B20A1A2F6E870FDF710B9A8590020F2
:103100002C6C0020F6660020000C014000140140E9
:1031100000C067400000494000002240FCA9F1D2F5
:10312000CDCCCCCCCCCCFC3F4D62503F40000020FD
:10313000380000203000002025312E306625312E49
:10314000306625382E326625382E326625382E32E6
:103150006625382E326625382E326625382E3266A0
:1031600025382E326625382E326625382E326600F6
:10317000607100202573257300000000810008485D
:103180000844D0F8001C490409D5D0F8001C48F6C2
:103190008F7211404CF280021143C0F8001C70473E
:1031A00000500040810008480844D0F8001C49063F
:1031B00009D5D0F8001C48F68F72114048F2C002C1
:1031C0001143C0F8001C70470050004081000648C1
:1031D0000844D0F8001C48F68F62114048F2800283
:1031E0001143C0F8001C7047005000402DE9FC4717
:1031F000804689461746002412E038F82460C6F35A
:10320000072505F00F032A09F5B205F00F0029097B
:10321000CDE9001007EB840004A1FDF77FF8641CE2
:103220004C45EADB3846BDE8FC87000025582558A8
:1032300025582558000000000122064B8240002935
:1032400003D01868104318607047186890431860DE
:103250007047000000740040064B9A148240002919
:1032600003D01868104318607047186890431860BE
:10327000704700000074004030B5084C236840F6E9
:10328000FE7282409343D1E900252A43D1E90251DD
:103290000D432A4382401A43226030BD007400402F
:1032A00008B5034A1044143000900098016008BD2E
:1032B0000074004002090120054B9040002903D012
:1032C0001968014319607047196881431960704794
:1032D0000474004001F0C0BB0148FFF795BA00003C
:1032E000A00000200148FFF703BA0000A000002062
:1032F000C10002D502490860704702494860704722
:103300000404024000000240002904D0016841F09A
:1033100001010160704701684FF6FE7211400160C3
:103320007047000001684FF6FE72114001600021F5
:10333000016041608160C1603649364A0839904277
:1033400004D1486840F00F0048607047314A143299
:10335000904204D1486840F0F000486070472D4A20
:103360002832904204D1486840F470604860704749
:10337000284A3C32904204D1486840F4704048608A
:103380007047244A5032904204D1486840F470207B
:10339000486070471F4A6432904204D1486840F444
:1033A0007000486070471B4A7832904204D14868E8
:1033B00040F0706048607047174A111F904204D176
:1033C000086840F00F0008607047134A14329042BA
:1033D00004D1086840F0F000086070470E4A2832B7
:1033E000904204D1086840F47060086070470A4A4F
:1033F0003C32904204D1086840F470400860704745
:10340000054A50329042FAD1086840F470200860B2
:1034100070470000080002400804024002460020F5
:10342000D10002D50449096801E004490968114244
:1034300000D001207047000000040240000002405C
:10344000002A03D002680A430260704702688A4378
:103450000260704730B5026847F6F0739A430C6A11
:103460008B682343D1E904452C4323438C692343D0
:10347000CC6923434C6A23438C6A23431343036080
:10348000CA6842600A6882604968C16030BD000055
:103490002DE9F047DFF89880D8F8001001F1100509
:1034A00028880E7A234F4FF03009002801D1042ECE
:1034B00004D0AC88A04215D8042614E01E48017838
:1034C000012903D00726102038802BE01B4A002159
:1034D00012681B4B92B2921C43F81210A7F800908E
:1034E00001701FE00226844200D90446A968A0B2F8
:1034F00088478246002000F0B1FB0146A2B2504648
:1035000002F062FBA1B2002001F0F0FB2888001B52
:103510002880688820446880A7F8009009494FF403
:1035200040500880D8F800000672BDE8F08700001F
:10353000D0000020CA000020DE000020505C0040C7
:1035400000600040C80000202DE9F041214E3468A1
:1035500010342088A168002915D0A0B1A588854223
:1035600000D90546A8B2884707462088401B20801E
:10357000608828446080002000F050FB0146AAB219
:10358000384601F009F82088134F302538B1134927
:10359000280208800021084601F0A8FB3D80208811
:1035A000A188884204D3316803200872BDE8F08105
:1035B00018B1316805200872F8E7316806200872F2
:1035C000074800210068074A80B2801C42F81010AA
:1035D0003D80EBE7D0000020CA000020C80000209A
:1035E000505C00400060004070B50024002838D0D6
:1035F0001C49A1F2D47001F081FA1B491B4B0878D9
:10360000D8704A78921FD2B28E78CD781D7101F6AB
:10361000140303E00D192D791D55641C9442F9DB48
:1036200020281ED021281CD022281AD1002E18D1E3
:1036300000200F4A0F494FF47A7432F810301B0AF9
:1036400001F8103032F8103001EB40056B70401C6F
:10365000A042F2DBBDE870404FF4FA61054802F089
:10366000F5B970BD840A0020B002002002000020DD
:10367000A8590020F00B00202DE9F843634E306874
:1036800042780024624D062A296801D08AB117E0E9
:103690000278520669D18078012804D0022804D02B
:1036A000032804D061E0CC695FE00C6A5DE04C6AFD
:1036B0005BE0438823B9C388022B01D1037923B18E
:1036C000082A39D00A2A3CD04FE00278530601D1AB
:1036D000838833B102F07F02012A04D0022A0CD081
:1036E00043E04C4C41E08A6940790021904710BB8F
:1036F0003068807AF8B1474C37E0417901F00F002B
:1037000001F070020B06444907D501EB8001D1F8A6
:10371000001CC1F30111090106E001EB8001D1F8A1
:10372000001CC1F3013109033C4B1B7883421CD9B7
:103730000AB901B1374C18E00078400615D1384C71
:1037400013E0027802F07F02012A0ED1827A62B180
:10375000428852B9027942B9C288012A05D18A69E0
:1037600040790021904700B92E4C09274FF00008FE
:103770003CB13068A0F8128084610020A04700208E
:1037800006E029683068096940788847032816D020
:1037900031680A8AA2F57F43FF3B0DD0022811D081
:1037A00082B1087800062AD5C88800900098824225
:1037B0000CD9009808821AE00F72BDE8F8833068CF
:1037C0000772FAE74FF008000872F6E70FD2286890
:1037D000154B90F82C00824202D283F8008006E05C
:1037E000B2FBF0F400FB142008B90120187028681F
:1037F00090F82C008882BDE8F843FFF749BE03200B
:1038000008720A4900030880D7E70000D0000020B2
:10381000D40000202551000800500040A8010020DD
:10382000B5500008FD500008DE000020C800002050
:103830007047704770B50A49032002F0B1F986B2AB
:103840000024074D04E0285D03F022F8641CA4B2B4
:10385000B442F8D3BDE87040032001F023BA000061
:10386000F471002070B5124C0420207000F094F820
:1038700000F07CFB0120E060352000F01DF8002006
:1038800060600C4D09E005EBC00000F01BF82070F3
:1038900000F06CFB6068401C6060E1686068884212
:1038A00002D221780429EED0BDE8704000F03CB887
:1038B00010000020F8FF07080149C86070470000A9
:1038C0000020024070B505464FF43026304600F027
:1038D0006FF8042811D1094C206940F002002061E2
:1038E0006561206940F040002061304600F060F8DA
:1038F000216941F6FD721140216170BD0020024036
:1039000004200849CA68D20701D001207047CA685C
:10391000520701D502207047C968C906FBD50320AC
:1039200070470000002002400248016941F0800118
:10393000016170470020024004490A6822F0100229
:103940000A600A6802430A607047000000200240D3
:10395000F0B506460D464FF40057384600F028F8FB
:1039600004280CD1064C206940F00100206135800C
:10397000384600F01DF82169BA1E11402161F0BDE2
:1039800000200240034A116801F038010143116030
:10399000704700000020024003480249416003498B
:1039A000416070472301674500200240AB89EFCD9D
:1039B00000B50346FFF7A4FF02E0FFF7A1FF5B1E7F
:1039C000012801D1002BF8D1002B00D1052000BD2A
:1039D00070B5064D4FF480442146284600F0C0F8EB
:1039E00021462846BDE8704000F0B8B800140140F8
:1039F00070B51F491D4D002203C92B4603F08AFBF9
:103A000003F0C4FA1B4C20601B4900222B4603C95B
:103A100003F080FB03F0BAFA184E30601849002218
:103A20002B4603C903F076FB03F0B0FA154D28606E
:103A3000FFF718FF4FF4967002F05CFE1249062063
:103A400008611148218814300170090A41703188D9
:103A50008170090AC17029880171090A417101F058
:103A60005DFCBDE87040642002F044BE0000594097
:103A70003000002048000020380000204C000020CA
:103A800040000020500000201000002008B5302029
:103A9000ADF8000000208DF803006946014800F0F1
:103AA00003F808BD000801402DE9F0410022CC7860
:103AB00004F00F03E40601D58C7823430C784FF013
:103AC0000F0714F0FF0F4FF0010C1CD005680CFA23
:103AD00002F40E882640A64211D1960007FA06F895
:103AE00025EA080503FA06F848EA0505CE78282EE7
:103AF00002D0482E02D002E0446100E00461521C72
:103B0000082AE4D305600A88FF2A1ED945680022E6
:103B100002F108060CFA06F40E882640A64210D1DF
:103B2000960007FA06F825EA080503FA06F848EAB7
:103B30000505CE78282E00D14461CE78482E00D1DC
:103B40000461521C082AE3D34560BDE8F0810246B7
:103B50000020D2680A4200D00120704741617047BE
:103B6000016170472DE9F84F0746884614461D4607
:103B70000026721E2046294603F0F5FF3A464346CA
:103B800003F0FCFB1F4A204B03F0C4FA07468846AB
:103B90001E4A1F4B2046294603F0BCFA04460D4638
:103BA000DFF870904FF47A7B304603F063FA2246D8
:103BB0002B4603F0AFFA3A46434602F097FF82469F
:103BC0000022154B009103F0A3FB04D240F2C17018
:103BD00049F8260010E0002250461346009903F0F1
:103BE0005DFA03D8002049F8260005E05046009908
:103BF00003F0FCF949F82600761CB6B25E45D3D333
:103C0000BDE8F88FB4C876BE9FDA23408386FE09EC
:103C10002E56843F1C1A002000049F400549096865
:103C200089B201EBC0000449001D31F8100080B2D8
:103C300070470000505C0040006000400549096882
:103C400089B201EBC0000449801D31F81000C0F3B7
:103C500009007047505C004000600040044909685A
:103C600089B201EBC000034931F8100080B27047FF
:103C7000505C004000600040044901EB8000D0F837
:103C8000000CC0F30110000170470000005000401C
:103C900010B50B480168001D0468001D0068084449
:103CA00000280BD00822074900F0F3FA0549204606
:103CB0000422BDE81040103100F0EBBA10BD000046
:103CC000E8F7FF1FE4000020FEE7000010B50248FF
:103CD000FEF73CFE002010BDA00000200148FEF7CA
:103CE0007BBE0000A000002070B504464FF0FF35F9
:103CF000E078022801D0A56106E0217B062908D0E2
:103D0000217B0A290AD0A561217B384E0A290AD0D5
:103D10000EE061684968491CA161F5E7A16849683E
:103D2000491CA161F0E7012802D1A168496819B1D5
:103D3000217B0A290FD014E0207856F82000018852
:103D400041F400710180207856F82000818A008BB0
:103D50000120207343E0012803D102212046FEF711
:103D600067FE207856F82000818A018B217B0A2982
:103D70000ED1A168496801290AD1018821F4806126
:103D80000180207856F82000018841F400710180FC
:103D90006069C10323D4217B06291CD180031AD476
:103DA0002178606856F82110007B08820320A0610A
:103DB000207856F82000818A090605D4A1690129D6
:103DC00002D0A169491CF6D1A069012809D0A069D7
:103DD000401C06D0A56103212046FEF729FE0020E5
:103DE00070BD2046BDE87040FEF7C4BE78000020DC
:103DF00030B4C178012918D181684A68424C022A3E
:103E000014D04A68012A2ED0027854F82220128A4F
:103E100009680A7081680A68521C0A6081684A68E9
:103E2000521E4A608168496841B367E0027854F8DD
:103E30002220128A09680A70017854F821100A8831
:103E400022F480620A80017854F821100A8842F432
:103E500000720A8081684A68521E4A6081680A6856
:103E6000521C0A60DEE7027854F82220128A0968A0
:103E70000A7081684A68521E4A60D3E7017854F894
:103E800021108A8822F400728A80017854F8211067
:103E90008A8822F480628A80037854F823108A8A00
:103EA000098A41698A0204D521F400114161022185
:103EB000C1700621816154F823100A8B920705D541
:103EC0008269012A02D08269521CF6D181690129D6
:103ED00017D08169491C14D04FF0FF31816154F82B
:103EE00023100A8842F480620A80017854F8211075
:103EF0000A8822F400620A800121017330BC00208C
:103F0000704730BCFEF736BE780000204FF0FF311E
:103F10008161C1698989B1F5804F0FD1027B0E495A
:103F2000052A0DD042680378127A51F8231002F066
:103F3000FE020A820621017304218161002070477C
:103F400082680378127A51F8231042F001020A8243
:103F50000A210173F0E700007800002002494CF6C6
:103F6000CC400860704700000030004002494AF62B
:103F7000AA200860704700000030004001494860F6
:103F80007047000000300040014988607047000021
:103F900000300040014908607047000000300040D8
:103FA00010B5144C2068017A02290AD0042908D0DF
:103FB00006290BD0082021680872BDE8104000F0E7
:103FC000FFBAFFF765FA2068007AF4E7417805291F
:103FD00009D10178490606D1C07800F0F5FD064800
:103FE0000068006A804705480068806880470820AC
:103FF000E1E70000D0000020D8000020D40000201D
:1040000030B58FB0FFF742FD24200B9000240C94B4
:1040100002250E950BA90020FFF72EF93C200B90EE
:104020000C940E950BA91020FFF726F919490FC91A
:10403000FFF798FD184D2846FFF774F917490091CE
:1040400017490191102102914FF47A710391049460
:104050008020059080000690800007902020089026
:10406000000209900A9469462846FFF7F3F90121F6
:104070002846FFF749F901210020FFF7DDF801216B
:104080001020FFF7D9F801210020FFF7E5F80FB065
:1040900030BD000038000020300402402074004091
:1040A0001C1A00200349002048800880683148809D
:1040B00008807047E001002038B54FF48044ADF827
:1040C000004003208DF8020010208DF80300054DFC
:1040D00069462846FFF7E8FC21462846FFF73EFDE3
:1040E00038BD00000014014010B545F25550FFF7EF
:1040F00051FF0320FFF742FF40F25D10FFF744FF3E
:10410000FFF734FFBDE81040FFF728BF2DE9F0436B
:1041100085B000F025FB00F03EF902F03BFC01F019
:10412000EFF9FFF7BFFF002001F0A4F9002001F034
:1041300057F9FFF7C1FF0621454800F077FC454ECF
:104140003078717800EB012003F07AFBDFF80891FA
:10415000494603F097FA03F007FADFF800810446B6
:104160000D46C8E90001B078F17800EB012003F0BA
:1041700067FB494603F086FA03F0F6F9384FC7E9C2
:1041800000013079717900EB012003F059FB4946B9
:1041900003F078FA03F0E8F9324EC6E900014FF077
:1041A00001093148CDE90309002130480291CDE9E8
:1041B00000100A460B462046294600F087F8C8E959
:1041C00000012B48CDE9030900212A480291CDE9DD
:1041D00000100A460B46D7E9000100F077F8C7E95E
:1041E000000100210291CDE9031923480A46CDE9D7
:1041F00000100B46D6E9000100F068F8C6E900019E
:10420000D8E9000102F040FC00F012FE0CCE03CF12
:1042100000F0D8FC00F032F84FF4167002F054FAB7
:1042200002F030F940F2CF242146632001F042FA37
:10423000012001F05DFA214640F2CF7001F0FAF959
:10424000012001F015FA05B0BDE8F043FFF74CBFBF
:10425000F8FF0708240000200000C84230000020BA
:104260003800002040000020000039400000494094
:1042700000405F40008066400000444010B500F000
:1042800037FE00F04BFE01F033FCBDE8104001F0BA
:104290001BBCF0B500230A2530263727002412E086
:1042A000B5EB107F04D906EB107C01F813C003E0D6
:1042B00007EB107C01F813C0000101EB430C8CF8F4
:1042C00001405B1CDBB29342EAD3F0BD2DE9F05F05
:1042D0000446DDE90AABDDE90C890D4616461F46AA
:1042E00032463B462046294602F0D8FE07D20E98B9
:1042F00010B144464D4610E034463D460DE052466E
:104300005B462046294603F003F806D20E9810B10A
:1043100044464D4601E054465D4620462946BDE8E8
:10432000F09FF0B505460F4614461E46304600F095
:104330001DF8C6F1040085400F22F2403A402A439E
:104340006009800000F1E020D0F8001104F01F05A2
:104350000123AB401943C0F8001104F1E02494F8A4
:10436000000440EA021084F80004F0BD07218143F4
:104370000902054A10684FF6FF031840034B184323
:1043800008431060704700000CED00E00000FA05E3
:10439000FEE77047704700B500230B220221012081
:1043A000FFF7BFFF0023272219461846FFF7B9FF82
:1043B0000023372201211846FFF7B3FF00231E22F6
:1043C00001210220FFF7ADFF00231D220121032060
:1043D0005DF804EBFFF7A5BF70B50F23C278012687
:1043E0000178002A1ED0144A126802F4E062C2F575
:1043F000E062120AC2F10404D3404578A5408278F5
:104400001A402A43120101F1E02181F800240078CA
:1044100000F01F018E404009800000F1E020C0F84C
:10442000006170BD01F01F0086404809800000F166
:10443000E020C0F8806170BD0CED00E00249084347
:1044400002490860704700000000FA050CED00E02A
:1044500004480168044A01F4E06111430160BFF3BC
:10446000408FFEE70CED00E00400FA0570B5022075
:10447000314D29684C780A78530606D002F07F0146
:1044800001292ED0022931D03AE0092C06D0052C82
:1044900007D0032C12D0012C18D031E000F0A0FE80
:1044A0002EE0C8787F2805D8887818B9888808B998
:1044B000887A08B108203CE0002021E0CA78012A6F
:1044C0001ED18988E1B900F0A7FE19E0CA78012A57
:1044D00016D18A88A2B9497A890611D500F062FD01
:1044E0000EE00B2C0CD100F0F3FE09E0012C02D001
:1044F000032C03D004E000F055FD01E000F09EFE27
:1045000030B10E49E0B2096849698847032802D0F2
:1045100018B108200DE009200BE006200849002210
:104520000968084B89B2891C43F81120064A3021DA
:1045300011802968087270BDD0000020D4000020CE
:10454000505C004000600040CA00002010B5104CD4
:104550002068007A02280ED004280CD003280CD042
:1045600005280AD007280DD0082021680872BDE868
:10457000104000F025B80820F7E7FEF7E5FF2068B7
:10458000007AF2E703480068C06880470820ECE73B
:10459000D0000020D4000020521C5208064B03EB30
:1045A0004101002A06D031F8043B20F8023B521E9C
:1045B000002AF8D1704700000060004070470000FA
:1045C00010B50B4890F82C10002000F031FB094882
:1045D0000068007A082805D1074A41021180074A7D
:1045E00010211180092801D0002010BD012010BD2C
:1045F00058010020D0000020C8000020CA00002080
:1046000010B5012001F050FA012106480160064A68
:1046100000210160031D19604FF4E0511180016019
:10462000002010BD405C0040DC0000202DE9F0417E
:1046300000242E480188408881423CD002F012F9C3
:104640002B4F2C4A00253978012601B37978A1B384
:1046500039894B1C9BB23B815054F9888C1EA34274
:1046600002DCBC784440BC70481E834202D1B8785A
:10467000C043B8708B4230D13D815018BA7810F8E1
:10468000021C914227D110F8010C08B323E0202826
:1046900003D0212801D022280DD129463D814FF495
:1046A000FA631555641C9C42FBDB4B1C3B81505448
:1046B0003E707D70B870BDE8F081FFE739894B1C12
:1046C0003B8150547E70F880B9784140B970F2E770
:1046D0000120FEF789FF3D707E703889F988884295
:1046E000E9D93D813D707E70E5E70000E0010020E2
:1046F00002000020840A0020034A516821F440414E
:10470000014351607047000000100240054A002933
:1047100003D051690143516170475169814351612F
:104720007047000000100240054A002903D0D169FB
:104730000143D1617047D1698143D1617047000065
:1047400000100240054A002903D09169014391619C
:1047500070479169814391617047000000100240E9
:1047600010B500F05BF84FF48034204600F0F6F806
:1047700000F044F928490870012822D11020FFF7E1
:10478000DBF80220FFF7FEF8002000F0DDF8002043
:1047900000F00AF9A01100F0FDF84FF4E0112046F6
:1047A00000F012F9012000F009F9392000F0ACF80E
:1047B0000028FAD0022000F011F900F0BDF8082816
:1047C000FBD101213C20FFF7BDFF01218804FFF749
:1047D000ABFF01210846FFF799FF01214802FFF7CF
:1047E000B1FF01210220FFF791FF01214807FFF7E8
:1047F0009BFF01210846FFF797FF01212020FFF7CB
:1048000093FF01210420FFF78FFF0121BDE8104035
:104810000220FFF789BF0000000000200C4801685B
:1048200041F00101016041680A4A1140416001689C
:10483000094A11400160016821F48021016041684A
:1048400021F4FE0141604FF41F01816070470000B8
:10485000001002400000FFF8FFFFF6FE10B5264AE8
:10486000516801F00C01254B002927D0042927D0DD
:10487000082927D00360516801F0F0010909204B95
:104880005C5C0168E1404160546804F4E064240A1F
:104890001C5D21FA04F48460546804F46054E40A52
:1048A0001B5DD940C160526802F44042920B144B28
:1048B0001B1F9A5CB1FBF2F1016110BD0360DAE7E6
:1048C0000360D8E7516801F47011536803F4803332
:1048D000022404EB914133B153689B0307D5094B84
:1048E00059430160C7E7074B59430160C3E7034BD6
:1048F00059430160BFE700000010024000127A0037
:104900005E00002000093D00034600205909094AC5
:1049100001290AD002290AD0516A03F01F0201239B
:1049200093400B4200D0012070471168F5E7116AEF
:10493000F3E70000001002400248406800F00C005D
:104940007047000000100240034A516821F0F00156
:104950000143516070470000001002400C490A6892
:1049600022F480320A600A6822F480220A60B0F5DC
:10497000803F07D0B0F5802F03D1086840F4A02015
:1049800008607047086840F4803008607047000095
:1049900000100240034A516821F4E0610143516074
:1049A0007047000000100240034A516821F4605132
:1049B00041EAC0005060704700100240014908669B
:1049C0007047000000004242034B5A6822F47C12F8
:1049D000084310435860704700100240034A516872
:1049E00021F00301014351607047000000100240B4
:1049F0000149086070470000D800424218B5002005
:104A000000904FF4A0643120FFF77EFF0099491C0D
:104A100000910099A14201D00028F4D03120FFF785
:104A200073FF08B1012018BD002018BD30B5002269
:104A3000084D00232B616B61AB6105F1140405E0A7
:104A400010F8013BA354131D2B61521C8A42F7DB63
:104A500030BD0000100000202DE9F0470220FEF7D5
:104A6000DDFC002840D00021204D4FF47A78002250
:104A7000002000EB400301EB430335F813301A44E8
:104A8000401C4045F5DB92FBF8F040F6E442504311
:104A9000C21700EB12500013154A22F81100491CEE
:104AA0000629E4DB0024DFF84C90DFF84CA0042654
:104AB00002F10C0704EB440006EB400035F810004F
:104AC00002F0D8FA4A46534602F024FB02F08EFA6E
:104AD00027F81400641C4445ECDBFEF729FABDE816
:104AE000F0470120FEF704BCBDE8F087BC2A002097
:104AF0009C590020986E1283C0CAE93F30B50A78ED
:104B000002704B7843701B1F002204E08C1885183C
:104B1000A478AC70521C9A42F8DB19448A7880F869
:104B2000D227C97880F8D31730BD00000648006846
:104B3000052807D105490868401C0860062801D1EE
:104B40000020086070470000D0010020FC00002019
:104B50007047000070B500220FA110A001F05AFDAF
:104B6000012001F0B1FDFFF701FA104D4FF40044B0
:104B700021462846FEF7F2FF002207A10C4801F06B
:104B800077FD012001F0A0FD21462846FEF7E8FF51
:104B9000BDE87040FFF7EAB94F4B000041542B438A
:104BA000495053454E443D313430360000140140E5
:104BB00078610020024920F007000860704700007B
:104BC000505C0040FEF7CEBFF0B50E490E780021D4
:104BD0000D4F48F68F7C48F280050BE0CBB207EB17
:104BE0008302D2F8004C04EA0C041C432C43C2F8A4
:104BF000004C491CB142F1D3044940F080000860E8
:104C0000F0BD0000A8010020005000404C5C0040B6
:104C1000054A21F00101126892B202EBC000034A7A
:104C2000001D42F810107047505C004000600040CA
:104C30000E4A126892B202EBC0000D4A801D02EBD0
:104C400040023E290AD94809C90601D1401E80B256
:104C50004FF4004141EA8020106070474808C907BE
:104C600001D0401C80B2800210607047505C004050
:104C70000060004082000A480244D2F8000C4BF663
:104C80008F731840CB0401D580F48050890401D57E
:104C900080F4005048F280010843C2F8000C7047CD
:104CA00000500040810008480844D0F8001C4BF632
:104CB0008F72114081F4805181F4005148F28002DA
:104CC0001143C0F8001C704700500040054A21F015
:104CD0000101126892B202EBC000034A42F81010C0
:104CE00070470000505C004000600040044A1268B9
:104CF00092B202EBC000034A801C42F810107047C9
:104D0000505C00400060004082000A480244D2F833
:104D1000000C48F6BF731840CB0601D580F0100098
:104D2000890601D580F0200048F280010843C2F8CE
:104D3000000C704700500040810008480844D0F83B
:104D4000001C48F6BF72114081F0100181F0200173
:104D500048F280021143C0F8001C70470050004028
:104D6000820005481044D0F8002C48F68F131A40F2
:104D70000A43C0F8002C704700500040AFF3008099
:104D80000CB50022019200922748016841F480315D
:104D900001604FF4A063016801F4003100910199B2
:104DA000491C0191009911B901999942F3D1016807
:104DB000890302D50121009100E0009200990129A8
:104DC00030D11A490A6842F010020A600A6822F0DB
:104DD00003020A600A6842F002020A604168416008
:104DE00041684160416841F480614160416821F45B
:104DF0007C114160416841F4E8114160016841F073
:104E00008071016001688901FCD5416821F00301CE
:104E10004160416841F0020141604168C1F3810194
:104E20000229FAD10CBD000000100240002002400F
:104E30002DE9F04104462648844201DA044603E0A5
:104E40002448844200DD04462349204602F01AFC2F
:104E500002F0DAFC851C2148691C50F8257050F8D6
:104E600021600521B81BB0FBF1F002F0E9FC80469F
:104E7000C5F1020046436D1E07FB056002F0E0FC31
:104E800005464146204602F0EFFC294602F0B8FDF7
:104E900002F06AFB124A134B02F03CF901F0F4FDF8
:104EA00002F062FB4FF066320F4B01F0DBFE002296
:104EB0000E4B02F02FF902F099F881B20020FEF7B4
:104EC000EFF9BDE8F04101211020FEF7F3B9000031
:104ED00000002041000048420000A040007C000883
:104EE0002D431CEBE2361A3F66660A4000FEAF40D7
:104EF00008B501211020FFF725FC4FF40050ADF854
:104F0000000003208DF8020014208DF8030069468C
:104F10000148FEF7C9FD08BD0010014010B5002092
:104F2000FFF766FD0121BDE81040C805FFF7FCBB97
:104F300038B51948006880B2001D41001748095A69
:104F400089B200EB41040094154D2868017A0929C3
:104F500013D0217801706178241D41702088FDF7FD
:104F6000C2FB29684880A088A41DFDF7BCFB296806
:104F70008880A41C00942088C880286801210172C0
:104F8000C08828B1FEF778FBBDE83840FFF718BBB2
:104F9000FFF76CFAF8E70000505C0040006000404A
:104FA000D00000202DE9F0413D480068017801F073
:104FB0007F01002904D0022908D00220BDE8F08139
:104FC000417A01F0DF0141720020F7E7418809B919
:104FD000017909B10220F1E7324B417921F08004D7
:104FE000314E0A0607D506EB8402D2F8002CC2F334
:104FF0000112120106E006EB8402D2F8002CC2F383
:10500000013212031D78A5420DD962B1807A50B1E8
:10501000080612D506EB8400D0F8000CC0F301108E
:10502000012802D024E00220C8E7E0B2FEF7BAF877
:10503000E0B23021FFF768FE1AE006EB8405D5F8F0
:10504000000CC0F30130012812D14BF68F7848F2E2
:1050500080079CB1E0B2FEF791F8D5F8000C00EAA9
:10506000080080F4805080F400503843C5F8000CEC
:105070000E4800684069804700209FE70C4890F880
:105080002C100020FFF7D4FDD6F8000C00EA080031
:1050900080F4805080F400503843C6F8000CE7E7F5
:1050A000D0000020A801002000500040D8000020BF
:1050B0005801002010B5074C002806D006480068AB
:1050C0000068804720680A3010BD216801200882EE
:1050D000002010BDD0000020D8000020064A136830
:1050E0005A8A002802D00868104470478888801ABD
:1050F0001882002070470000D000002010B5074C37
:10510000002806D0064800688068804720680C3078
:1051100010BD216801200882002010BDD0000020B1
:10512000D800002010B52A49002809680DD0294868
:10513000002202800A7853060BD002F07F02012A77
:105140001FD0022A1FD0002010BD0220088200209C
:1051500010BD497A8A0604D5027842F00202027034
:1051600003E0027802F0FD020270490604D50178DE
:1051700041F00101017025E0017801F0FE010170AC
:1051800020E0144810BD4A7902F00F011306124ABC
:105190000CD502EB8101D1F8001CC1F301110129EA
:1051A00010D1017841F0010101700BE002EB8101A7
:1051B000D1F8001CC1F30131012903D1017841F07C
:1051C000010101700548006800698047014810BD71
:1051D000D0000020E000002000500040D800002057
:1051E00010B50A480A4A00685278C178914203D83B
:1051F00082780AB982880AB1022010BD81720548FE
:10520000006840688047002010BD0000D0000020EA
:10521000A8010020D800002010B506480068417A97
:1052200041F02001417204480068C06980470020B5
:1052300010BD0000D0000020D800002070B520482C
:105240000268517921F080041E4B21F080000D0688
:1052500003EB800005D5D0F8003CC3F301131B011C
:1052600004E0D0F8003CC3F301331B03164D2D7846
:10527000A54213D954888CB983B1927A72B10906C8
:1052800048F280020CD5D0F8001C48F6BF731940D4
:1052900081F010011143C0F8001C0BE0022070BD2A
:1052A000D0F8001C4BF68F73194081F480511143E4
:1052B000C0F8001C0548006880698047002070BD68
:1052C000D000002000500040A8010020D80000209D
:1052D00010B50F4C0F4A20681268C1789269407966
:1052E000904721688A7A8AB118B9087908B988780C
:1052F00008B1022010BD08480068C06880472068D7
:105300004179C172C1780173002010BD022010BD27
:10531000D0000020D4000020D800002070B5002468
:10532000194D04202870FEF737FBFEF71FFE012001
:10533000E8603520FEF7C0FA1448A860FEF7C2FA0C
:10534000287028780428FCD10F4E14360FE0FEF7A1
:105350000DFE315D3019407801EB002081B2A86864
:10536000FEF7F6FA2870A868801CA860A41C2869BB
:10537000844202DA28780428E9D000202861A88233
:10538000BDE87040FEF7D0BA10000020F8FF070813
:1053900038B503231022114D4FF4004401280ED0DC
:1053A000ADF800408DF802308DF80320694628469C
:1053B000FEF77AFB21462846FEF7D0FB38BDADF854
:1053C00000408DF802308DF8032069462846FEF72C
:1053D0006BFB21462846FEF7C3FB38BD0014014095
:1053E0002DE9F843802103261024DFF880808D0109
:1053F0001F4F01281DD0ADF800108DF802608DF808
:10540000034069464046FEF74FFB80214046FEF7C9
:10541000A7FBADF800508DF802608DF80340694697
:105420003846FEF741FB29463846FEF797FBBDE8B4
:10543000F883ADF800108DF802608DF803406946DE
:105440004046FEF731FB80214046FEF787FBADF872
:1054500000508DF802608DF8034069463846FEF72B
:1054600023FB29463846FEF77BFBE0E7000C0140B2
:1054700000140140F8B540220324204F9501102666
:1054800001281CD0ADF800208DF802408DF8036093
:1054900069463846FEF708FB40213846FEF760FBB8
:1054A000ADF800508DF802408DF80360694638462B
:1054B000FEF7FAFA29463846FEF750FBF8BDADF87C
:1054C00000208DF8024004208DF80300694638461C
:1054D000FEF7EAFA40213846FEF740FBADF80050EF
:1054E0008DF802408DF8036069463846FEF7DCFA15
:1054F00029463846FEF734FBF8BD00000014014091
:1055000010B500F05BF8FCF7B5FFFEF779FD01215F
:10551000BDE81040880700F035B9000070B50024E0
:10552000114D55F8240038B1816949B18169491C90
:1055300002D08169491E8161641C022CF1D370BDC7
:105540004FF0FF31816155F824101020087355F891
:10555000240001690029EFD1FF21016155F82400E1
:10556000FDF711FBE8E700007000002010B50F48C0
:10557000016841F00101016041680D4A114041603C
:1055800001680C4A11400160016821F4802101602A
:10559000416821F4FE0141604FF41F018160FFF773
:1055A000EDFB05494FF00060086010BD001002409F
:1055B0000000FFF8FFFFF6FE08ED00E010B588B030
:1055C00005A800F085F940F2C110ADF818000F20D1
:1055D000ADF814000020ADF81A00ADF816004FF039
:1055E000804405A9204600F025F92021204600F03E
:1055F00019F96021ADF804100121ADF806107F21E2
:10560000ADF80A100221ADF80C1001A9204600F0F7
:10561000C5F808B010BD00000548018821F001015F
:1056200001800349002014310880FEF7FFBF00000D
:10563000100400400C4AD36943F00403D3610B4AC1
:105640001080101F01800021001F018007482038B2
:10565000018841F00101018004482C38018841F0A3
:105660000101018070470000001002402C0400403E
:105670000849002808D0074A0020243210800888F2
:1056800040F0010008807047088820F00100088081
:1056900070470000000400400548018821F0010126
:1056A0000180034900201431088000F0C3BB0000D2
:1056B000100800400C4AD36943F00403D3610B4A3D
:1056C0001080101F01800021001F01800748203832
:1056D000018841F00101018004482C38018841F023
:1056E0000101018070470000001002402C080040BA
:1056F0000849002808D0074A002024321080088872
:1057000040F0010008807047088820F00100088000
:10571000704700000008004009480188C9070ED002
:1057200008490A8842F400420A80018821F00101F8
:10573000018003481038018821F001010180704781
:10574000101400400C0000200C4AD36943F02003E1
:10575000D3610B4A1080101F01800021001F0180BF
:1057600007482038018841F00101018004482C38A5
:10577000018841F0010101807047000000100240E3
:105780002C140040002904D0018841F0010101805F
:105790007047018821F001010180704770B5028CCB
:1057A00022F010020284028C8388048B24F4E044EB
:1057B00024F440760D884FF6FF7404EA052535433E
:1057C00022F020020E8904EA061616434A8804EAEB
:1057D00002123243114EB04202D0114EB04217D1E4
:1057E00022F080024E8904EA0616164326F040068F
:1057F0008A8804EA0212324323F4806323F40063AC
:105800008E8904EA86061E43CB8904EA8303334368
:1058100083800583C9880187028470BD002C014004
:1058200000340140828822F07002828082880A431C
:105830008280704730B502881B4C1C4DA0420DD0B1
:10584000A8420BD0B0F1804F08D0194B984205D038
:10585000184B984202D0184B984203D122F07003A3
:105860004A881A43154B984206D0154B984203D0EC
:1058700022F44073CA881A4302808A8882850A8883
:105880000285A0420AD0A84208D00E4A904205D014
:105890000D4A904202D00D4A904201D1097A018608
:1058A0000121818230BD0000002C01400034014004
:1058B0000004004000080040000C004000100040C0
:1058C00000140040004001400044014000480140F5
:1058D0004FF6FF71818000210180C18041800172FB
:1058E0007047704710B5144C40F22551204600F027
:1058F0002BF800281AD0204600F0A4F8C4B22046A5
:1059000000F03AFF0D4801880A040FD480290ED216
:105910000B4B00221A8029B9094A243A138843F014
:10592000010313804A1C02800648445410BD41F410
:105930000041018010BD0000004800400C00002024
:10594000241400409C19002070B5002440F66A120F
:10595000C1F3421301F01F05012606FA05F2012BDF
:105960000CD0022B0DD0838A1340090A8E40008888
:1059700030400BB100B10124204670BD8389134033
:10598000F3E7038A1340F0E730B585B004460D46CF
:10599000208A4CF6FF710840E98801432182A089E2
:1059A0004EF6F3110840A9882A8911436A890243F7
:1059B0001143A181A08A4FF6FF410840A989014304
:1059C000A1826846FEF74AFF1D48844201D1039830
:1059D00000E00298A189090408D500EBC00101EBA1
:1059E000001029684900B0FBF1F007E000EBC001AE
:1059F00001EB001029688900B0FBF1F06422B0FBD4
:105A0000F2F109010B096FF018056B4300EB8300FD
:105A1000A3891D044FF0320307D503EBC000B0FB90
:105A2000F2F000F00700084306E003EB0010B0FBC3
:105A3000F2F000F00F000843208105B030BD0000F7
:105A4000003801408088C0F30800704770B50646F2
:105A50000C46002512E00120FEF70EF92028FAD1AD
:105A600070194022C02100F0AFF840210120FFF75B
:105A70003DF90120FFF760F94035403C3F2CEAD862
:105A80000120FEF7F9F82028FAD1A2B27019C0213E
:105A900000F09AF8A1B20120FFF728F9BDE87040A4
:105AA0000120FFF749B90000054A4FF400510028D2
:105AB00002D01046FEF752B81046FEF751B800006B
:105AC00000100140FDF762B806490548086002224F
:105AD000027205484860054A8A6000680047000075
